{
  "abi": [
    {
      "anonymous": false,
      "inputs": [
        {
          "indexed": false,
          "internalType": "uint256",
          "name": "newvalue",
          "type": "uint256"
        }
      ],
      "name": "ValueChange",
      "type": "event"
    },
    {
      "inputs": [],
      "name": "increment",
      "outputs": [],
      "stateMutability": "nonpayable",
      "type": "function"
    },
    {
      "inputs": [],
      "name": "retrieve",
      "outputs": [
        {
          "internalType": "uint256",
          "name": "",
          "type": "uint256"
        }
      ],
      "stateMutability": "view",
      "type": "function"
    },
    {
      "inputs": [
        {
          "internalType": "uint256",
          "name": "newValue",
          "type": "uint256"
        }
      ],
      "name": "store",
      "outputs": [],
      "stateMutability": "nonpayable",
      "type": "function"
    }
  ],
  "bytecode": "608060405234801561001057600080fd5b5061017c806100206000396000f3fe608060405234801561001057600080fd5b50600436106100415760003560e01c80632e64cec1146100465780636057361d1461005b578063d09de08a14610070575b600080fd5b60005460405190815260200160405180910390f35b61006e610069366004610104565b610078565b005b61006e6100b3565b60008190556040518181527fa08786470df18dce77f2c3a12acf2022fd1ff8b97fe62396a54ee458dcebef049060200160405180910390a150565b6000805490806100c28361011d565b91905055507fa08786470df18dce77f2c3a12acf2022fd1ff8b97fe62396a54ee458dcebef046000546040516100fa91815260200190565b60405180910390a1565b60006020828403121561011657600080fd5b5035919050565b600060001982141561013f57634e487b7160e01b600052601160045260246000fd5b506001019056fea2646970667358221220fa02ae83ae895699e68f064840e4377303d7bbcba0873003413024c16fcfaf9e64736f6c634300080b0033",
  "bytecodeSha1": "bc28195daf23696e89a33f5593b68e423377716b",
  "compiler": {
    "evm_version": "istanbul",
    "optimizer": {
      "enabled": true,
      "runs": 200
    },
    "version": "0.8.11+commit.d7f03943"
  },
  "contractName": "BoxV2",
  "language": "Solidity",
  "natspec": {
    "kind": "dev",
    "methods": {},
    "version": 1
  },
  "opcodes": "PUSH1 0x80 PUSH1 0x40 MSTORE CALLVALUE DUP1 ISZERO PUSH2 0x10 JUMPI PUSH1 0x0 DUP1 REVERT JUMPDEST POP PUSH1 0x4 CALLDATASIZE LT PUSH2 0x41 JUMPI PUSH1 0x0 CALLDATALOAD PUSH1 0xE0 SHR DUP1 PUSH4 0x2E64CEC1 EQ PUSH2 0x46 JUMPI DUP1 PUSH4 0x6057361D EQ PUSH2 0x5B JUMPI DUP1 PUSH4 0xD09DE08A EQ PUSH2 0x70 JUMPI JUMPDEST PUSH1 0x0 DUP1 REVERT JUMPDEST PUSH1 0x0 SLOAD PUSH1 0x40 MLOAD SWAP1 DUP2 MSTORE PUSH1 0x20 ADD PUSH1 0x40 MLOAD DUP1 SWAP2 SUB SWAP1 RETURN JUMPDEST PUSH2 0x6E PUSH2 0x69 CALLDATASIZE PUSH1 0x4 PUSH2 0x104 JUMP JUMPDEST PUSH2 0x78 JUMP JUMPDEST STOP JUMPDEST PUSH2 0x6E PUSH2 0xB3 JUMP JUMPDEST PUSH1 0x0 DUP2 SWAP1 SSTORE PUSH1 0x40 MLOAD DUP2 DUP2 MSTORE PUSH32 0xA08786470DF18DCE77F2C3A12ACF2022FD1FF8B97FE62396A54EE458DCEBEF04 SWAP1 PUSH1 0x20 ADD PUSH1 0x40 MLOAD DUP1 SWAP2 SUB SWAP1 LOG1 POP JUMP JUMPDEST PUSH1 0x0 DUP1 SLOAD SWAP1 DUP1 PUSH2 0xC2 DUP4 PUSH2 0x11D JUMP JUMPDEST SWAP2 SWAP1 POP SSTORE POP PUSH32 0xA08786470DF18DCE77F2C3A12ACF2022FD1FF8B97FE62396A54EE458DCEBEF04 PUSH1 0x0 SLOAD PUSH1 0x40 MLOAD PUSH2 0xFA SWAP2 DUP2 MSTORE PUSH1 0x20 ADD SWAP1 JUMP JUMPDEST PUSH1 0x40 MLOAD DUP1 SWAP2 SUB SWAP1 LOG1 JUMP JUMPDEST PUSH1 0x0 PUSH1 0x20 DUP3 DUP5 SUB SLT ISZERO PUSH2 0x116 JUMPI PUSH1 0x0 DUP1 REVERT JUMPDEST POP CALLDATALOAD SWAP2 SWAP1 POP JUMP JUMPDEST PUSH1 0x0 PUSH1 0x0 NOT DUP3 EQ ISZERO PUSH2 0x13F JUMPI PUSH4 0x4E487B71 PUSH1 0xE0 SHL PUSH1 0x0 MSTORE PUSH1 0x11 PUSH1 0x4 MSTORE PUSH1 0x24 PUSH1 0x0 REVERT JUMPDEST POP PUSH1 0x1 ADD SWAP1 JUMP INVALID LOG2 PUSH5 0x6970667358 0x22 SLT KECCAK256 STATICCALL MUL 0xAE DUP4 0xAE DUP10 JUMP SWAP10 0xE6 DUP16 MOD BASEFEE BLOCKHASH 0xE4 CALLDATACOPY PUSH20 0x3D7BBCBA0873003413024C16FCFAF9E64736F6C PUSH4 0x4300080B STOP CALLER ",
  "sha1": "b21a0494c432e8bb8be3be376167bd4633fc108a",
  "source": "// SPDX-License-Identifier: MIT\n\npragma solidity ^0.8.0;\n\ncontract BoxV2 {\n    uint256 private value;\n\n    event ValueChange(uint256 newvalue);\n\n    function store(uint256 newValue) public {\n        value = newValue;\n        emit ValueChange(newValue);\n    }\n\n    function retrieve() public view returns (uint256) {\n        return value;\n    }\n\n    function increment() public {\n        value++;\n        emit ValueChange(value);\n    }\n}\n",
  "sourcePath": "contracts/BoxV2.sol",
  "type": "contract"
}